:02000000010DF0
:10000B000150D281D280758911D2AFD280C281D2F8
:10001B00B6745511BFC287D286C285D284C283D231
:10002B0082116811C411C8C280D281C2B674AA11E0
:10003B00BFD287C286D285C284D283C282118D1170
:10004B00C411C80116C28C10B50BD2B5758AED75EB
:10005B008CFFD28C32758AFF758CFD015DC2A9C2F3
:10006B00B578447902019510B508D2B5780B7900B3
:10007B000181789F79001198D2A9D28D78287900C7
:10008B000195C2A9D2B578647900119822B8000401
:10009B00B900012218B8FF0119C28EC28F758B17D8
:1000AB00758DFCD28E308FFD01987F0833CE13CE29
:1000BB00DFFACE2211B5F5A022C2D501CAD2D59056
:1000CB000000C28F758BDF758DB1A29033C5F0A286
:1000DB00D53365F020E001A3308FEFC3E58294F4B4
:0700EB00E583940150D922C6
:00000001FF
