:02000000010DF0
:10000B00015DD281D280758911D2AF117FC28190EF
:10001B000000C2D5E583B4000AE582B4C2059000A6
:10002B0000B2D574009320D501F4F5A095F013928E
:10003B008213928313928413928513928613928761
:10004B001392B61155F5F0A3011FFAA9F0D9FEDAF8
:10005B00FC22C28C10B50BD2B5758AED758CFFD214
:10006B008C32758AFF758CFD016AC2A9C2B57844C2
:10007B00790201A210B508D2B5780B7900018E7800
:10008B009F790011A5D2A9D28D7828790001A2C23F
:10009B00A9D2B57864790011A522B80004B9000182
:1000AB002218B8FF0119C28EC28F758B17758DFC84
:0700BB00D28E308FFD01A57C
:00000001FF
